:020000040800F2
:1000000000000120C5020008CB020008CF02000852
:1000100041030008450300088D03000800000000AC
:10002000000000000000000000000000D5030008F0
:10003000D903000800000000DD030008E103000808
:10004000F1030008F1030008F1030008F1030008C0
:10005000F1030008F1030008F1030008F1030008B0
:10006000F1030008F1030008F1030008F1030008A0
:10007000F1030008F1030008F1030008F103000890
:10008000F1030008F1030008F1030008000000007C
:10009000000000000000000000000000F103000864
:1000A000F1030008F1030008F1030008F103000860
:1000B000F1030008F1030008F1030008F103000850
:1000C000F1030008F1030008F1030008F103000840
:1000D000F1030008F1030008F1030008000000002C
:1000E000F1030008F1030008F1030008000000001C
:1000F000000000000000000000000000F103000804
:1001000000000000F1030008F1030008F1030008FB
:1001100000000000000000000000000000000000DF
:10012000F1030008F1030008F1030008F1030008DF
:10013000F1030008000000000000000000000000C3
:10014000000000000000000000000000F1030008B3
:10015000F1030008F1030008F1030008F1030008AF
:10016000F1030008F1030008000000000000000097
:10017000000000000000000000000000000000007F
:1001800000000000F1030008000000000000000073
:10019000F103000800B583B000F046FE384B394A41
:1001A0001360394A1360394900E02146384B9942BF
:1001B0000BD20A684B6801F10C0488689842F4D9A4
:1001C0001168196004330432F8E72E4B1A68314B7A
:1001D0009A4200D0FEE72C4B1A682F4B9A42F9D175
:1001E000274B2E4A13602E4A13602E4B05E0002049
:1001F000106004329342FAD80B462B4A934204D241
:10020000194651F8082B5B68F4E7244B1B6813B9B7
:10021000234B1B6803B1FEE701F008F8694601A80B
:1002200000F094FD214C224BE41AA4100025AC42AE
:1002300014DC204C204BE41AA4100025AC4213DC43
:100240000099019800F0FAFF05461C4C1C4BE41A7B
:10025000A410002C0EDC284600F04AFD144B53F885
:10026000253098470135E2E7134B53F8253098477E
:100270000135E3E7013C124B53F824309847E8E797
:10028000BABADECA0000002084DB0020F4030008B4
:100290000C040008785634123254769888DB00201B
:1002A00024DC00200C0400081C0400081C040008C6
:1002B0001C0400081C0400081C0400081C0400089E
:1002C0001C04000808B5FFF765FF00BEFEE71EF03E
:1002D000040F0CBFEFF30880EFF309807146414A29
:1002E00010472DE9F04182B004468846124B5E6B00
:1002F0009F6B9D6A1B6B13F0020F03D00E4BDB6AE2
:10030000002B0CDB0D4800F033FDCDF800803B46A0
:1003100032462946204600F093FD00BEFEE74BF62C
:10032000AB6100F007FE0028ECD0034B4FF0004219
:10033000DA6202B0BDE8F08100ED00E0481E00087E
:1003400000BEFEE71EF0040F0CBFEFF30880EFF3D2
:1003500009807146244A10472DE9F04182B00446D5
:100360008846084B5E6B9F6B9D6A074800F000FD56
:10037000CDF800803B4632462946204600F060FD1D
:1003800000BEFEE700ED00E0581E00081EF0040F5E
:100390000CBFEFF30880EFF309807146134A104752
:1003A0002DE9F04182B004468846084B5E6B9F6B96
:1003B0009D6A074800F0DCFCCDF800803B463246E1
:1003C0002946204600F03CFD00BEFEE700ED00E0BF
:1003D000641E000800BEFEE700BEFEE700BEFEE7AA
:1003E00070470000E302000859030008A103000859
:0403F00000BEFEE766
:1003F400B81E00080000002088DB0020B81E00089A
:10040400000000100000001088DB002028DC002021
:080414000000001000000010C0
:1004200010B50446074B1868074BA3FB0030800942
:1004300000F090F8002221464FF0FF3000F044F821
:10044000002010BD0C000020D34D621008B50B4BEE
:100450001A6842F400721A601A6842F480621A60E4
:100460001A6842F480721A60032000F00FF80F201F
:10047000FFF7D6FF00F080FF002008BD003C0240DF
:10048000014B1868704700BF1CDC002010B5044603
:10049000C31E042B0FD80A4AD36823F4E0631B045D
:1004A0001B0C240204F4E064234343F0BF6343F4D1
:1004B0000033D36010BDA421024800F04FFCEAE7EE
:1004C00000ED00E0781C000870B505460C461646A5
:1004D0000F2A25D80F2C28D81B4BDB68C3F3022327
:1004E000C3F10702042A28BF0422191D062921D9B5
:1004F000033B4FF0FF3101FA02F224EA02049C4070
:1005000001FA03F326EA03063443002D14DB240129
:10051000E4B205F1604505F5614585F8004370BD1D
:10052000BC210A4800F01AFCD4E7BD21074800F0BE
:1005300015FCD1E70023DCE705F00F052401E4B248
:10054000034B5C55EBE700BF00ED00E0781C0008B2
:1005500014ED00E00138B0F1807F0AD2064B5860FC
:10056000064AF02182F823100020986007221A60C2
:1005700070470120704700BF10E000E000ED00E090
:1005800010B50446042800D038B9042C0BD0094A11
:10059000136823F00403136010BD40F2B311064842
:1005A00000F0DCFBF1E7034A136843F00403136037
:1005B000F2E700BF10E000E0781C000830B583B01F
:1005C000044603680F2B29D8236813F0010F3DD090
:1005D0006368012B01D9052B25D1A34B9B6803F040
:1005E0000C03042B29D0A04B9B6803F00C03082BB1
:1005F0001ED022799D4B1A706368002B50D0FFF7F4
:100600003FFF0546984B1B6813F4003F1ED1FFF7D0
:1006100037FF401B6428F5D90320E3E1F521944816
:1006200000F09CFBD0E7FA21914800F097FBD4E75B
:100630008D4B5B6813F4800FDBD08B4B1B6813F47E
:10064000003F03D06368002B00F0C981236813F0DA
:10065000020F5DD0E368012B31D823691F2B34D8FA
:10066000814B9B6813F00C0F3AD07F4B9B6803F0D3
:100670000C03082B2FD0E368002B74D07D4B012294
:100680001A60FFF7FDFE0546774B1B6813F0020F5B
:100690005AD1FFF7F5FE401B0228F5D90320A1E14E
:1006A000FFF7EEFE0546704B1B6813F4003FCDD0FC
:1006B000FFF7E6FE401B6428F5D9032092E14FF4D2
:1006C00096716B4800F04AFBC7E740F22D1168486D
:1006D00000F044FBC4E7644B5B6813F4800FCAD19D
:1006E000614B1B6813F0020F04D0E368012B01D0AB
:1006F000012077E15C48036823F0F8032169F822C0
:1007000092FAA2F2B2FA82F201FA02F21343036001
:10071000236813F0080F50D06369012B35D8636943
:10072000002B38D0544B01221A60FFF7A9FE054672
:100730004D4B5B6F13F0020F3FD1FFF7A1FE401B43
:100740000228F5D903204DE14748036823F0F80358
:100750002169F82292FAA2F2B2FA82F201FA02F2C6
:1007600013430360D4E7434B00221A60FFF788FE6F
:1007700005463D4B1B6813F0020FC9D0FFF780FE02
:10078000401B0228F5D903202CE140F26D113848B6
:1007900000F0E4FAC3E7384B00221A60FFF770FE5E
:1007A0000546314B5B6F13F0020F06D0FFF768FE72
:1007B000401B0228F5D9032014E1236813F0040F2D
:1007C00060D0A368012B01D9052B1FD10023019311
:1007D000254B1A6C42F080521A641B6C03F0805354
:1007E0000193019B254A136843F480731360FFF75C
:1007F00047FE0546214B1B6813F4807F0CD1FFF7A1
:100800003FFE401B0228F5D90320EBE040F2971190
:10081000174800F0A3FAD9E7227A194B1A70A36897
:1008200083B1FFF72DFE05460F4B1B6F13F0020F30
:1008300028D1FFF725FE401B41F288339842F3D9B7
:100840000320CFE0FFF71CFE0546074B1B6F13F09C
:10085000020F17D0FFF714FE401B41F28833984275
:10086000F3D90320BEE000BF003802400238024046
:10087000BC1C000800004742800E47420070004048
:1008800070380240A369022B39D8A369002B00F00D
:10089000A880564A926802F00C02082A00F0A48050
:1008A000022B40F08880E36913B1B3F5800F2CD19F
:1008B000236A3F2B2FD8636A323BB3F5BF7F30D812
:1008C000A36A022B05D0042B03D0062B01D0082BE2
:1008D0002DD1E36A043B0B2B2FD8454B00221A6025
:1008E000FFF7CEFD0546414B1B6813F0007F2AD071
:1008F000FFF7C6FD401B0228F5D9032072E04FF434
:10090000E6713C4800F02AFABFE740F2D5113948B9
:1009100000F024FACCE74FF4EB71364800F01EFAF1
:10092000C9E740F2D711334800F018FAC8E74FF48E
:10093000EC71304800F012FACBE740F2D9112D48A3
:1009400000F00CFAC9E7E369226A1343616A47F6CB
:10095000C07292FAA2F2B2FA82F201FA02F21343E0
:10096000A26A5208013A4FF4403191FAA1F1B1FA6A
:1009700081F18A401343E16A4FF0706292FAA2F269
:10098000B2FA82F201FA02F21343184A5360184B8A
:1009900001221A60FFF774FD0446144B1B6813F024
:1009A000007F06D1FFF76CFD001B0228F5D903205C
:1009B00018E0002016E00E4B00221A60FFF760FDE1
:1009C00004460A4B1B6813F0007F06D0FFF758FD62
:1009D000001B0228F5D9032004E0002002E00120DA
:1009E00000E0002003B030BD0120FBE700380240EA
:1009F00060004742BC1C0008214B9B6803F00C03BD
:100A0000042B3AD0082B01D01E4870471C4B586865
:100A100000F03F005B6813F4800F1ED01A4AB2FB4F
:100A2000F0F2174B586847F6C073184093FAA3F3D7
:100A3000B3FA83F3D84000FB02F0114B5B6803F478
:100A400040334FF4403292FAA2F2B2FA82F2D3402B
:100A500001335B00B0FBF3F070470A4AB2FBF0F2DF
:100A6000074B586847F6C073184093FAA3F3B3FADC
:100A700083F3D84000FB02F0DFE70348704700BF74
:100A8000003802400024F40040787D0170B504462F
:100A90000D460368013B0E2B11D8072D15D88C4B42
:100AA0001B6803F00F03AB4215D2EBB2884A1370F8
:100AB000136803F00F03AB420DD0012070BD40F26C
:100AC0003721844800F04AF9E7E74FF40E71814876
:100AD00000F044F9E3E7236813F0020F18D0A3688D
:100AE0007BB1802B0DD0902B0BD0A02B09D0B02B3D
:100AF00007D0C02B05D0D02B03D0E02B01D0F02B9A
:100B000037D1754A936823F0F003A1680B439360D3
:100B1000236813F0010F73D06368032B2FD8636829
:100B2000012B32D09A1E012A36D96B4A126812F074
:100B3000020F00F0CA8068498A6822F0030213435A
:100B40008B60FFF79DFC06466368012B2BD0022BC0
:100B500038D0032B45D0604B9B6813F00C0F4FD05F
:100B6000FFF78EFC801B41F288339842F3D90320B3
:100B7000A4E740F24F21574800F0F0F8C1E740F2F7
:100B80005621544800F0EAF8C9E7534A126812F4B3
:100B9000003FD0D1012091E74F4A126812F0007F48
:100BA000C9D101208AE74C4B9B6803F00C03042B4E
:100BB00026D0FFF765FC801B41F288339842F2D9BA
:100BC00003207BE7444B9B6803F00C03082B17D0F2
:100BD000FFF756FC801B41F288339842F2D903207C
:100BE0006CE73D4B9B6803F00C030C2B08D0FFF720
:100BF00047FC801B41F288339842F2D903205DE71D
:100C0000334B1B6803F00F03AB4209D9EAB2304BF8
:100C10001A701B6803F00F03AB4201D001204DE7AF
:100C2000236813F0040F14D0E3685BB1B3F5805F61
:100C300008D0B3F5A05F05D0B3F5C05F02D0B3F51F
:100C4000E05F36D1244A936823F4E053E1680B4314
:100C50009360236813F0080F15D023695BB1B3F5D7
:100C6000805F08D0B3F5A05F05D0B3F5C05F02D0B8
:100C7000B3F5E05F23D1184A936823F460432169F8
:100C800043EAC1039360FFF7B7FE134B9B6803F081
:100C9000F003F02292FAA2F2B2FA82F2D3400F4AA3
:100CA000D35CD8400E4B18600F20FFF7B9FB002033
:100CB00004E74FF42D71074800F050F8C2E740F206
:100CC000BB21044800F04AF8D5E70120F6E600BF52
:100CD000003C0240BC1C000800380240AC1C00086C
:100CE0000C000020014B1868704700BF0C0000206A
:100CF000FEE7000008B5034800F052F80120FFF7B6
:100D0000F7FF00BFEC1C000808B503460C4A126848
:100D10005AB10B4A1068033323F003030344094A12
:100D2000934206D8064A136008BD054A0649116079
:100D3000EFE700F023FB0C2303604FF0FF30F3E7F5
:100D40008CDB002000FC002028DC00200123036055
:100D5000014B0B60704700BF0400002008B50A4635
:100D60000146024800F004F8FFF7C4FF001D000828
:100D70000FB400B583B004AB53F8042B019380216A
:100D8000064800F035FB002803DD0146034800F06B
:100D900047F803B05DF804EB04B0704794DB002023
:100DA00010B5044600F0F0FA0146204600F038F88D
:100DB0000121024800F034F810BD00BFC41D000836
:100DC0002DE9F04385B004460F4643560BB10E465D
:100DD0001EE0042528462146ABBE0446384605B031
:100DE000BDE8F08314F9011B04AA1A4402F8101C90
:100DF0000133AB42F6D304AA1344002203F8102CAB
:100E00004FF00408E94640464946ABBE8046761B93
:100E1000002EE3D03546102E28BF10250023E8E72A
:100E200008B5FFF7CDFF08BD08B500F093F8024AFA
:100E3000024B9A6008BD00BF0000000800ED00E012
:100E4000F8B504460D4617461E462748FFF790FFA3
:100E500021682648FFF78CFF61682548FFF788FF67
:100E6000A1682448FFF784FFE1682348FFF780FF6B
:100E700021692248FFF77CFF61692148FFF778FF6D
:100E8000A1692048FFF774FFE1691F48FFF770FF71
:100E90001E48FFF76DFF29461D48FFF769FF1D4CEF
:100EA000E16A1D48FFF764FF216B1C48FFF760FFF4
:100EB000E16B1B48FFF75CFF15F0800F0AD115F4BA
:100EC000004F0CD11748FFF753FF06991648FFF75C
:100ED0004FFFF8BD39461548FFF74AFFEFE73146A7
:100EE0001348FFF745FFEDE72C1D00083C1D0008E7
:100EF0004C1D00085C1D00086C1D00087C1D0008CE
:100F00008C1D00089C1D0008AC1D0008BC1D0008BD
:100F1000C81D000800ED00E0D81D0008E81D00080D
:100F2000F81D0008281E0008301E0008081E0008D2
:100F3000181E000883691A888A4201D00020704771
:100F40000268033A012A03D8023383610120704703
:100F5000002070470C4B1A6842F001021A60002111
:100F600099601A6822F0847222F480321A60074A6B
:100F70005A601A6822F480221A60D960044B4FF03C
:100F800000629A60704700BF0038024010300024B1
:100F900000ED00E0224B9B6803F00C03042B14D0FF
:100FA000082B16D01BB11F4B1F4A1A6002E01D4BC5
:100FB0001D4A1A601A4B9B68C3F303131B4AD15C8A
:100FC000184A1368CB4013607047164B184A1A60D2
:100FD000F0E7134B5A685B6803F03F0312F4800F8D
:100FE00013D0134AB2FBF3F20D4B5B68C3F38813C3
:100FF00003FB02F30A4A5268C2F301420132520073
:10100000B3FBF2F3074A1360D4E7074AB2FBF3F2EB
:10101000034B5B68C3F3881303FB02F3EAE700BFEB
:10102000003802400C0000200024F400741E000868
:1010300040787D0178B910B4074B18684900032443
:101040008C4020EA04001860186802FA01F101439C
:10105000196010BC704770470000024078B910B4A6
:10106000074B1868490003248C4020EA04001860EC
:10107000186802FA01F10143196010BC704770470B
:101080000800024078B912B1012A07D07047103128
:10109000012303FA01F1044B19607047012303FA9D
:1010A00001F1014B1960704718000240164B1A6895
:1010B00042F001021A601A6822F480321A601A683B
:1010C00022F080721A60104B1B6813F0020FFAD0E6
:1010D0000E4B1A6822F001021A601A6822F002020E
:1010E0001A601A6822F0F0021A601A681A601A6808
:1010F00022F4E0521A601A681A601A6822F46042F8
:101100001A601A681A6070470038024008380240B6
:1011100001280BD010B1022810D070470B4803688B
:10112000012202FA01F1194301607047084803687F
:10113000012202FA01F11943016070470548036872
:10114000012202FA01F11943016070473038024070
:101150004038024044380240064B1A6822F004022C
:101160001A601A6822F002021A601A6842F001023C
:101170001A60704710E000E0054B5860044B1B6894
:1011800013F4803FFAD0024B00229A60704700BFF0
:1011900010E000E070B594B000240194204B1A6C6C
:1011A00042F080521A641B6C03F080530193019B40
:1011B00002941C4B1A6842F440421A601B6803F404
:1011C00040430293029B0123089309934FF4800349
:1011D0000F93192310934FF4A873119304261296BA
:1011E0000723139302250E9508A8FFF7E7F90F23AD
:1011F0000393049505944FF480530693079429466E
:1012000003A8FFF743FCFFF76DFD074BA3FB00307E
:101210008009FFF79FF93046FFF7B2F914B070BDAF
:101220000038024000700040D34D621008B5FFF74F
:101230000DF9FFF7AFFFFFF7ADFE08BD38B5FFF7BB
:1012400035FFFFF789FF00210846FFF761FF002205
:1012500011461046FFF702FF002201211046FFF75A
:10126000FDFE002202211046FFF7F8FE00220321B6
:101270001046FFF7F3FE002204211046FFF7EEFEB2
:10128000002205211046FFF7E9FE00220621104644
:10129000FFF7E4FE002207211046FFF7DFFE0122E0
:1012A00000210846FFF7C6FE012211460020FFF785
:1012B000C1FE012202210020FFF7BCFE0122032112
:1012C0000020FFF7B7FE012204210020FFF7B2FE45
:1012D000012205210020FFF7ADFE0122062100209A
:1012E000FFF7A8FE012207210020FFF7A3FE3FE041
:1012F000204D2A5D02F0010200210846FFF7C2FEE0
:101300002A5DC2F3400201210020FFF7BBFE2A5DE7
:10131000C2F3800202210020FFF7B4FE2A5DC2F36F
:10132000C00203210020FFF7ADFE2A5DC2F3401288
:1013300004210020FFF7A6FE2A5DC2F3401205211A
:101340000020FFF79FFE2A5DC2F3801206210020D5
:10135000FFF798FE2A5DD20907210020FFF792FED1
:10136000FF20FFF709FF01344DF60F339C42BFD930
:101370000024F9E71000002070470000014B1868B6
:10138000704700BF20DB0020034613F8012B002A22
:10139000FBD1181A0138704730B5141E05469BB0B2
:1013A000184605DA8B232B604FF0FF301BB030BDA1
:1013B0004FF40273ADF80C3014BF04F1FF33234631
:1013C000029305934FF6FF7300910491ADF80E3030
:1013D00002461E9B6946284600F072F8431CBCBFBB
:1013E0008B232B60002CE1D0009B00221A70DDE7DC
:1013F00007B5009313460A46014603480068FFF705
:10140000CBFF03B05DF804FB20DB00202DE9F047A3
:101410008E689E4282460C469046994637D88A8905
:1014200012F4906F31D0256809696F1A656902233B
:1014300005EB450595FBF3F509F101033B449D429E
:1014400038BF1D46530530D5294600F07BFB0646C4
:1014500050B90C23CAF80030A38943F04003A3819C
:101460004FF0FF30BDE8F0873A46216900F0F8FA06
:10147000A38923F4906343F08003A381266165610F
:101480003E44ED1B2660A5604E464E4500D94E46B3
:1014900032464146206800F0EEFAA3689B1BA36029
:1014A00023681E4426600020DCE72A4600F0A4FBE7
:1014B00006460028E2D12169504600F0F5FAC8E757
:1014C0002DE9F04F9DB0804603938B891D060C4695
:1014D00016460FD50B696BB9402100F033FB206035
:1014E000206128B90C23C8F800304FF0FF30C7E066
:1014F000402363610023099320238DF82930302392
:101500008DF82A304FF0010B37463D4615F8013B68
:101510000BB1252B3ED1B7EB060A0BD05346324612
:1015200021464046FFF772FF013000F0A480099B7E
:10153000534409933B78002B00F09D8000234FF02B
:10154000FF32CDE90523049307938DF853301A93A6
:101550002F46052217F8011B4F4800F031FA049B73
:10156000D0B9D90644BF20228DF853201A0744BFB2
:101570002B228DF853202A782A2A15D0079A2F4635
:1015800000200A25394611F8013B303B092B4DD983
:10159000B8B10FE02F46B8E73F4A801A0BFA00F0C7
:1015A000184304903D46D3E7039A111D1268039136
:1015B000002A01DB079204E0524243F00203079243
:1015C00004933B782E2B0CD17B782A2B33D1039BB1
:1015D0001A1D1B680392002BB8BF4FF0FF33023770
:1015E00005932E4D39780322284600F0E9F938B1E9
:1015F0004023401B03FA00F0049B0343013704938C
:10160000397827488DF8281006227E1C00F0D8F97A
:10161000002838D0234B13BB039B073323F0070369
:1016200008330393099B4B4409936DE705FB023292
:1016300001200F46A6E700230137059319460A2526
:10164000384610F8012B303A092A03D9002BC8D0AC
:101650000591C6E705FB012101230746F0E703AB2F
:1016600000932246104B04A94046AFF30080B0F12E
:10167000FF3F8146D6D1A3895B063FF536AF099877
:101680001DB0BDE8F08F03AB00932246064B04A9C2
:10169000404600F081F8EAE7841E00088A1E000830
:1016A0008E1E0008000000000D1400082DE9F04710
:1016B00091461F468A680B69DDF820809342B8BFC7
:1016C0001346C9F8003091F8432006460C4612B183
:1016D0000133C9F800302368990642BFD9F80030B9
:1016E0000233C9F80030256815F0060507D104F16A
:1016F000190AE368D9F800209B1AAB4228DC94F859
:1017000043302268003318BF012392062DD404F120
:10171000430239463046C047013020D02368E5688F
:10172000D9F8002003F00603042B08BFAD1AA36804
:1017300022690CBF25EAE57500259342C4BF9B1AB8
:10174000ED184FF000091A344D451AD1002008E079
:101750000123524639463046C047013003D14FF08D
:10176000FF30BDE8F0870135C3E7E1185A1C30208F
:1017700081F84300224494F8451082F84310023364
:10178000C5E70123224639463046C0470130E6D03E
:1017900009F10109D8E700002DE9F04301F1430CFC
:1017A0000C46097E85B06E291746064698460C9A67
:1017B00000F0B38022D8632936D00AD8002900F07F
:1017C000B980582900F0838004F1420584F8421062
:1017D00032E0642901D06929F6D120681368050632
:1017E00003F104012AD51B681160002B03DA2D22B6
:1017F0005B4284F843206F480A2239E0732900F0E5
:101800009D8008D86F2920D07029DDD1236843F04E
:101810002003236003E0752917D07829D4D17823D9
:1018200084F84530644855E01368191D1B68116041
:1018300004F1420584F8423001238CE01B681160FA
:1018400010F0400F18BF1BB2CFE713682568181DB2
:101850001060280601D51B6802E06806FBD51B88CE
:1018600054486F2914BF0A220822002184F843102B
:101870006568A560002DC0F29580216821F0040103
:101880002160002B3DD1002D40F08E806546082A56
:101890000BD12368DB0708D5236962689A42DEBF53
:1018A000302305F8013C05F1FF35ACEB050323615E
:1018B000CDF800803B4603AA21463046FFF7F6FEEE
:1018C00001304DD14FF0FF3005B0BDE8F08339480D
:1018D00084F84510136821681D1D1B6815600A06F1
:1018E0000BD5CA0744BF41F0200121601BB9226813
:1018F00022F0200222601022B7E74D0648BF9BB2BB
:10190000EFE76546B3FBF2F102FB1133C35C05F868
:10191000013D0B460029F5D1B9E7136825686169D7
:10192000181D106028061B6801D5196002E06A06C0
:10193000FBD51980002323616546B9E71368191D9B
:1019400011601D6862680021284600F039F808B16E
:10195000401B606063682361002384F84330A7E77D
:1019600023692A4639463046C0470130AAD0236849
:101970009B0713D4E068039B9842B8BF1846A3E7BF
:1019800001234A4639463046C04701309AD00135D6
:10199000E368039A9B1AAB42F2DCEBE7002504F103
:1019A0001909F5E7002BACD1037884F8423004F133
:1019B00042056CE7951E0008A61E00080000000006
:1019C00001F0FF01102A2BDB10F0070F08D010F8F0
:1019D000013B013A8B422DD010F0070F42B3F6D1F4
:1019E000F0B441EA012141EA014122F007047FF00D
:1019F00000070023F0E80256083C85EA010586EA64
:101A0000010685FA47F5A3FA87F586FA47F6A5FA9F
:101A100087F68EB9EED1F0BC01F0FF0102F00702AB
:101A200032B110F8013B013A83EA010313B1F8D156
:101A30000020704701387047002D06BF3546033837
:101A4000073815F0010F07D1013015F4807F02BF70
:101A5000013015F4C03F0130F0BC0138704700BFC1
:101A600010B5431E0A44914200D110BD11F8014B3C
:101A700003F8014FF7E7884210B501EB020307D8DE
:101A8000421E99420AD011F8014B02F8014FF8E7C3
:101A90008342F5D98118D21AD34200D110BD13F870
:101AA000014D01F8014DF7E738B50546002945D04D
:101AB00051F8043C0C1F002BB8BFE41800F0D2F81A
:101AC0001F4A1368104633B9636014602846BDE8A6
:101AD000384000F0C8B8A3420CD92168621893427C
:101AE00004BF1A685B68636004BF52182260046018
:101AF000ECE713465A680AB1A242FAD91968581895
:101B0000A0420BD120680144581882421960DDD1EF
:101B1000106852685A6001441960D7E702D90C2353
:101B20002B60D3E7206821188A4204BF11685268ED
:101B3000626004BF091821605C60C7E738BD00BF60
:101B400014DC002070B5CD1C25F0030508350C2DE4
:101B500038BF0C25002D064601DBA94203D90C2312
:101B60003360002070BD00F07DF8214A14682146E2
:101B700091B9204C23681BB9304600F063F820600F
:101B80002946304600F05EF8431C24D10C23336014
:101B9000304600F068F8E4E70B685B1B18D40B2BA9
:101BA0000FD90B60CD50CC18304600F05CF804F132
:101BB0000B00231D20F00700C31AD3D05A42E25075
:101BC000D0E78C424B6816BF636013600C46EBE7AE
:101BD0000C464968CCE7C41C24F00304A04205D09D
:101BE000211A304600F02EF80130CFD02560DBE717
:101BF00014DC002018DC0020F8B5074614460E4619
:101C000021B91146BDE8F840FFF79CBF22B9FFF7A4
:101C10004BFF25462846F8BD00F026F8A0420FD21B
:101C200021463846FFF78EFF05460028F2D03146A0
:101C30002246FFF715FF31463846FFF735FFE9E743
:101C40003546E7E738B5064C0023054608462360CD
:101C5000FFF75AF8431C02D1236803B12B6038BD4B
:101C600020DC00207047704751F8043C181F002BFF
:101C7000BCBF0B58C01870472E2E2F737973746534
:101C80006D2F7372632F73746D333266342D6861F8
:101C90006C2F73746D3332663478785F68616C5F73
:101CA000636F727465782E6300000000000000000E
:101CB0000102030401020304060708092E2E2F73F4
:101CC000797374656D2F7372632F73746D3332661D
:101CD000342D68616C2F73746D3332663478785F9D
:101CE00068616C5F7263632E6300000061626F72F3
:101CF0007428292C2065786974696E672E2E2E0051
:101D00006173736572745F706172616D28292066FA
:101D100061696C65643A2066696C652022257322CE
:101D20002C206C696E652025640A00005374616381
:101D30006B206672616D653A0A0000002052302007
:101D40003D2020253038580A000000002052312064
:101D50003D2020253038580A000000002052322053
:101D60003D2020253038580A000000002052332042
:101D70003D2020253038580A000000002052313222
:101D8000203D20253038580A00000000204C522009
:101D90003D2020253038580A000000002050432004
:101DA0003D2020253038580A0000000020505352B2
:101DB000203D20253038580A000000004653522F9D
:101DC0004641523A0A0000002043465352203D202B
:101DD00020253038580A00002048465352203D2024
:101DE00020253038580A00002044465352203D2018
:101DF00020253038580A00002041465352203D200B
:101E000020253038580A0000204D4D464152203DD3
:101E100020253038580A00002042464152203D20FB
:101E200020253038580A00004D6973630A0000000D
:101E3000204C522F4558435F52455455524E3D2039
:101E4000253038580A0000005B48617264466175AD
:101E50006C745D0A000000005B4275734661756C2E
:101E6000745D0A005B55736167654661756C745DEE
:101E70000A0000000000000000000000010203044E
:101E800006070809232D302B2000686C4C0065667E
:101E900067454647003031323334353637383941BB
:101EA00042434445460030313233343536373839D1
:071EB00061626364656600D6
:101EB8007856341290DB0020000000000024F40063
:101EC8007B6D5A392F303C566E8FA2AA9F8E8C8F0D
:101ED80098A6A9B0ADA99F94928B9C988D847E7A80
:101EE800787E78787B6E68696B7B7F7459473F4B47
:101EF8006B7794A1A5988572616E7C959D99948B5A
:101F08007C7D868E9C8F8B86827E736C707C7F80B6
:101F180084858D9B8B7D6E525471768F9FA09E8C8D
:101F28006F4E5565787D7B6F7B8987889AA8908CE2
:101F38009DAFAEAC9B929188898285989F8B5D35C9
:101F4800262E4B66788588826A5C4C4C6979969215
:101F58008C8A807E7991958F947E6D7F846E6E7465
:101F68006C6F81809FA18868403E2F557F848BB518
:101F7800BBA99B80808D927285A1A6ACC7E5E5D4EC
:101F8800BF9D8073636C6C8C8D778E8FA2B8C2985E
:101F98004C22181B2D456B91989979645C667A7868
:101FA8007D71686A69708BA09A939C9693A79780B5
:101FB80079795E5A6D7584846C432A2D445D8698C0
:101FC80093979077656D849AACBCC2B6AAABB5B747
:101FD800B3B59F968E81766C61585945495F728476
:101FE80080613A140F24476E84908C86786A6B7FE0
:101FF80095ABC0B19C92858E959396847C716A6CE2
:10200800737A707A7D7B88A9BDAE8F5D3844688FFE
:10201800ADB9BEB8AE998C858EA2B1B2A698878BA1
:1020280083868E8B837A7E808A909081745F5058E5
:10203800709291632B101035658898A19A938C72D1
:102048006F748CA5ACA68B7F798A9F9CA4A292887A
:102058008C8488837D8479666587A1B292552A2508
:102068003C6693989B9A918873615E6D83989E8D68
:102078008286848C918A7F6D5B586160636A6C6A22
:102088006364859F9F8850201936638D9693888B4B
:1020980084736D617AA0B7B4AA93878795A9B3B4FE
:1020A8009D908B94A09C9799886B708295A5895573
:1020B8002C1C2D597F8D9C9992927C686A7B97AFD6
:1020C800AA978C84798A999DA28E8682878F8E8919
:1020D8007D79606D94A19A7B43171D3B648FA7AAF5
:1020E800ACA1937A646977A2B2B2A99A9F9CA3A67D
:1020F800AD9B897F6D6E6E767678684D537B9B9726
:10210800713513092957789194867C73554D5F7BF7
:10211800A4BEB6A5938885919C9F9783827A777D84
:102128007D7570613F5794A9A57D3315193E7BA332
:10213800B0B0B0A4A38F7A849BB4C7BB9F8F848EA2
:102148009CA299887773787C7F7F766759445A8FE9
:10215800A1905E210D143F77A0BBB9B4AA90746812
:102168007493B6C2C0B4958890959EA18E7D7C7CF0
:102178007D86867D755E537BA5AC9B633431446D4B
:1021880097AAAFB0A698785E5F7288989E8D867A77
:10219800777B7D827B72666767696D685F594247A6
:1021A8007EACB38F501C1C3259808E939BA39273C4
:1021B8005E5B769AB3B7AB9E93919293988F87881C
:1021C80085878A89878C896F7CA5B5A5793F1D2766
:1021D8004B7E9EAAAEAFA995735F647997A5A2942A
:1021E800877A77777274716C768285857E7B817B3E
:1021F800657BA6AFA27A4025395D839AA0A8AEA2D6
:10220800896D5D69869FA9A89C908E90909CA7A5D2
:10221800A6AAA59C8C7972715B6090A396783C14F1
:10222800172B4F6D7E818C8B78593E42557997A13B
:102238009C9899958B8685837E7F7E7E7B706F7058
:10224800655470959689622B1E36557B929EADBB60
:10225800B2997C6F7F97B5C8CBC7BCB19D89898778
:10226800838A8D888179717173616F97AA976A34AF
:10227800192735536A788A9E9F8E7864667A949C6B
:10228800A2A2A39D9285838F8E989E9C9990857B10
:102298007A6A5E7FA2A18A59272A3E55748598B921
:1022A800C8B89D7D747C95A5A8B4B4B4A691858062
:1022B8007E7B7C797A736155544E374568706443E8
:1022C8001A122642677B8EA2B4AD92745B62708349
:1022D800919DA8ABA895817F817D82878A8B837623
:1022E800707A6B6990B4BAA78156585F6C7B849EEC
:1022F800B4C4B396786C79888F9CA7ABB09F86746A
:102308007976757B7A7F797165646252648A9D9566
:102318006D45323E495C6A7EA2B8BBA082737A855D
:102328008E93A4B1BEBDA59888827D7C858C989635
:102338008F8982746B869A9977523737444B5C76CB
:1023480098ACB7A1856C6564656F778C908C7B6C55
:1023580069706965717B817F7360616153587A8B9D
:102368008369493E4A4E576585ABC0BCA492858BAC
:1023780089838FA5B7BDB6A9A6ABA496949A9D9E4E
:10238800918079776A5A708F99836648454C484C92
:102398005E85A1AD90756865676B758AA8B6B6A6A7
:1023A8009F99907D757E86908D7F7879746366831A
:1023B80094927755465052536182B1C9C2AF9F96E5
:1023C80093898797B1BDBCAE9E9E9A7E68697682D6
:1023D8007B6E61676656495A7A806C472D242620A1
:1023E800213D6F9AA79D928A82715D63798E979637
:1023F8009393999886798394978E86888D83685C61
:10240800779497826E6B706A5D6080AEC8BFAFAA22
:10241800A8988075869DA5A6A7ACADA08975727E83
:10242800837D7470746C5240425E79746255545165
:102438004A3F4C6F95A9A8A9AFB09D88838E989FF5
:10244800A1A9B7BBB49F89878B847D78777A796C8B
:10245800637392A1968471685B4235476D8D9AA625
:10246800ADAE9D7F6C677271747E868F8B81746947
:10247800615D606264615C5E574A4B677F79644C5A
:1024880045493A2F456E929EA5B0BEBEB1A5A0ACF7
:10249800ACA6A6B1B9B7B6ADA09B9B979894867D1C
:1024A800786957566C847C6C616062564B556D83B5
:1024B800909EADB4AA988A7C7A716F7888908E8E37
:1024C8009084736E6E726F70707C7C686782A2A154
:1024D80091878276624F516D8496A7BDC7BFA89B2E
:1024E8008E8A857A8494A3A7AAAEA18984888879DC
:1024F8006E6767635047587E836F5E53412D1E1C7D
:102508002C41546882989B8F8F8C848074757B7B58
:102518007F86979180838F9187807E847D72656E98
:10252800868E848289837B6C6F7D8B929CABB9BCD1
:10253800ABA9A9A09D9693928B8D93989783787E4B
:1025480083807F7F7C7566565564685C5B66685FD0
:102558004D4B58646C6D7A8D9A989CA4A2A29EA04B
:10256800A4A6AAADAEB2A2939392918E8988857CD7
:10257800776D6F78756E6B6E675E524A525F6D79D4
:10258800848C97989795959392928F928D827A746E
:1025980068625A5657595A55534E494A525C605FB9
:1025A800616262615E5962757D8389919BACB3B447
:1025B800B7B4B5BABABCB8AEA8A59D9C9A978D8D8C
:1025C80084736A5E5D677170726F72706F6B6B6F28
:1025D800717779787B7A79848C8F91979CA7ABA453
:1025E8009D9385817E78776E676E74737271727849
:1025F8007B777376717579788184858F9A9CA09E94
:102608009AA1A7A9AFB1AFAFB1A89A8B7C7977721D
:102618006D645B59574E4E51565D6362625D504B17
:102628004B53565B5D656B737775787D858E918DA1
:1026380088868B8985817C808789817A7677787A84
:102648007D818281878D8B8481818B8D9091919101
:102658009399908F949CA6AFB1ADA99C9E999790A1
:10266800807E7A766F72695A4D5354576259656401
:102678005C676A666B707675757C86929EB1B5A745
:10268800AECACCDDCFC4D5B88C6B606A7867716E82
:102698006C583F4E495F61676B6C5D4547486A956A
:1026A800A2A0ABA9AEA8A79FB0E2C1A6AEB2B8C01F
:1026B800AA939189796A5F584B43423743484E54ED
:1026C8005D514B514F575B6366676973707A8180C0
:1026D8008382838C8F838377696A615357554B5004
:1026E80056575A635B5B616B736F7D7E828E959FD5
:1026F800AAB4AEAEB0ACB2B1B1BFD1D6DADBDBD8DA
:10270800C9B5A79E8C8C7E6E635A5948392A2327EF
:1027180032414E4D45474E45495760696B72778047
:102728009094979F90949A9C9B9FA3999C9A9A9D0A
:102738009C9EA0A59A87826E7C849691838F9092A6
:10274800868B8B9AA2A59FA0ACA6A6A6A8ADA5A489
:10275800AFB5B1A6A39D9A8C847A72696360554916
:102768003B4750584B46443B312A2E363631384386
:10277800545A5A636B6B726F706F6A6367685D5205
:102788004F5C697277858A81787081A0A19BA4A229
:102798009D948898ADB8C3D6E3EFF3F1F8F7F3F159
:1027A800F0EEEDE1D9DAD2C6BBB7BCB3A6A3A196C9
:1027B8007B60545F66544C4D3F321F1B25221C26FC
:1027C80036464C49515A51484A47483F39454B4586
:1027D8003E39414E494654594F4032334A595B6459
:1027E8006B665B556074757C90A7BCC7CDD4DCD292
:1027F800CDCFCECEC7C3CBCAC2B7AEAFAFA6A4A902
:10280800ABA08E7B768A97918F93897B6E737F7F3F
:10281800859BB4C8CFCED4D6CABDB8B3ACA29A9E55
:102828009B91867B7A7B746F7169573F251C313A7F
:102838003633312719100D1512142237484C4952D6
:102848005448414140413F3D464C4E4A444D5C59F5
:102858005A676C655C4D4C6F888D959E998D838801
:102868009A9EA6C3DBEAF0EFF3F5EBE3E3E1DDD5EF
:10287800CED4D5CDC3B9BBBDB5B0B4AFA092776E39
:102888008C9E9897988A7D6964727174869FB2B598
:10289800AFB3B7A89D97928D827B7E7F766B61647C
:1028A8006B64616865584529294E5E565B5C4F3FED
:1028B8002626353439537080847E86846F6362613E
:1028C8005D57535D645E5455606760666C685D482B
:1028D8002A3B696C636A6D5E4B384B5E5E6887A302
:1028E800B0AEABBAB8A89C9F9FA0979BAAABA19685
:1028F80098A0A0969CA39D8E7960799B99919898B1
:102908008879697D8A8896B6CEDBD8D9E5E0CFC5C7
:10291800CAC7C6BEC2CDCABDB1B0B6B2A3A5AA9F2A
:102928008B705873928E8487816C55445259535CCE
:10293800798A8F898A948E786C6F6D696064716FFB
:1029480062595A625F565A62584936243F605D514F
:10295800534D3C281927393C4C697C8483808B86ED
:1029680070666765615D5F6B696157565B5C5C5B50
:102978005C55493A2D4A706E616463584A3C4E650D
:102988006E7B96A9B3B7B8C2C0B0A7AAAAA9A5A6D4
:10299800B2B3A99F9EA5AAAAAAADA796857B93B50F
:1029A800B0A1A6A5947D6D7A90949DB2C2CAC6C501
:1029B800CECBB7AFAFB0B0AFB1BCBDB1A8A6B0B4C5
:1029C800AFA6A1948578728FAB9D8D8D856E574982
:1029D8005D71727F94A3A9AAA4AAA18F8687858016
:1029E8007B7A817D71626167665A524D3F33272633
:1029F800435744363C331D120F283B43536B7B82AD
:102A0800817E888072696F6F6D6C727D7B6E626B80
:102A1800747165645F584E404C6E745F5C60513CE5
:102A28002D3551595D6E848F948F929C8C817D8257
:102A38008383838D959186829099948B8E8A857EE7
:102A4800778CACAB9C9F9E8B796C7D949BA7BAD1FD
:102A5800D8D8CED3D1C2B7B6B8B7B7B3BDC1B8A767
:102A6800A8B2B0A096938A82747593A18E81847857
:102A78006253516B787C8AA3B0B0A8A3ABA1948AA7
:102A88009092928D8E9694847B8A908676777570D4
:102A9800605467847B666562523E303F53565D6D75
:102AA8008489857B84837667686D6D69646E7369D4
:102AB80058626F6C5C58545144343C5D644E4C4FC2
:102AC800453124273F4953668696988F93998D7E82
:102AD80078868C8D899097917F848D8F847C767190
:102AE800634F52717E6E6A6B634E3C3C53626F81DA
:102AF800A3BBC2B9B7BBB5A79FABB2B7B0B4B9B3A4
:102B0800A5A7B1B4ABA39B9386747A949B8C8C8F46
:102B18008672616175818894B0C2C7BFBBB9B2A320
:102B2800999EA2A5A0A1A1978B90958E8787837C5B
:102B380069596B80766A757B6E594A52656C6B80F1
:102B48009CAAAFADB0ADA18C898A8A8A8C928B8001
:102B580079807B7572726C5B45455C5A4846505269
:102B68004735324151535D73828A8D939896867E9C
:102B78007A7570717976706D6D69605E61615D4FAF
:102B88004C5B5F544F5556524E535F6B727F919911
:102B98009A9EA8ADAEA7A5A19A8E8A918E8E909383
:102BA8008E867E7E7C73696D7A736360665F56532A
:102BB80062747D7E889BA3A2A5A9AFB0ABAEB2B26A
:102BC800ABA69F9B9CA1A1A1A19E958B81828E8C77
:102BD8007E7676695D585C666E7D91A1A4A6AEB4DA
:102BE800B1A7A2A2A39FA1A7A3A19D96918B8B8811
:102BF8007E74696D6D6661656158514E56555E6BA0
:102C0800798694A1A9ABA7A79F9689817B77797EBE
:102C1800827E78756A6258586460575251474541B8
:102C2800494D52656D757E8C919A9CA6ACA69E976F
:102C38008F8179726D68666C6D6C68696E67605CAF
:102C48005C53514C52515568717A82959BA09EA253
:102C5800A0989494938D8E898682817D736D677018
:102C68007574767D786C696469606C7B7F85909EED
:102C7800A4ABABB4B7BAB7B1A6A0998D88888C8637
:102C8800868380877F7472766E6F71737A74787CAE
:102C980080848E989FA8AAAFB0AFA8A6A09E9B924A
:102CA800897F726C626574716F727164645E5E5E56
:102CB80060707580899598A0A9AFB2B1B4B1AAA186
:102CC8009E9691887D726C65585A554B484D484779
:102CD8004B4A53525861656A6F787D8C969EA5A7BA
:102CE800A5A3A39C978E888278756D646A655B5EE0
:102CF800605755534E5456616A717D868E92A1A5D0
:102D0800A5AAA9A9AAABA69D958D84776F665A5DD9
:102D18005F55555A544E54545B6065706F73798192
:102D280087929FA6AEB1B2B0B2ACA49E9B9992898D
:102D3800857673776C676A6965696A6D717682856D
:102D48008A95999D9FA3A2A6AEB0B3B5B7B2A8A223
:102D58009A91857B74686E6D6260635955554F51C1
:102D68004F5662636C797B8390989BA3A8A7A4A510
:102D7800A39C9B9C9B958E847C70727468636C6723
:102D88006569686A6A70716E717B7D828C8F939BAE
:102D9800A2A4A5A5A49F948D82757168665B5A60EC
:102DA8005553585449514C505C606C6F737D828107
:102DB8008A918F99A3A5ABA8A6A6A69A9490939258
:102DC8007765616E6F5C5E5541455759646D6370F8
:102DD800686A606780B5CFAAA29FAAB9B5B3B5A73C
:102DE800A19DA6927F6B827C7864335F778972613C
:102DF8005557606169686472818F8C90A2B6C4B9B6
:102E0800BFAAABADAA9C877D75838880694F646F24
:102E18006D6E60494A54545F5460767D898C8C95F8
:102E2800A9BEB4ABA7A3B2AEA5A89E9A9D9B9B963C
:102E3800858B856E674E464C504B484542545A55D3
:102E48005A6574828E8D87929BA79FA5ACA5A9B65B
:102E5800B1A6A5A19C9887705F525E5548484E4D13
:102E68004B4E48485759606F6B7173889C979EA961
:102E7800A6B5BAB3ACB0BEBEB5AFA6958F7D765C2D
:102E88004B524548524F4851585855565C5F656FEC
:102E98006F7480879398A0A2B1BCC0BAB7BAAFB517
:102EA800A89F8D837A726C5C615E5C6C6F5D5B63FE
:102EB8005D5D615E66646D77757E898D93A3A3A958
:102EC800B1BDC5C2BDAFA9A9998A7D77776B665D8B
:102ED800605B5D62665958604D5B5F5A6167737AE3
:102EE80075828A8B98A7A3B0BDBDC2C0C2B1A7A482
:102EF800A08D867E74726C62575B5953605852601D
:102F0800595F615D5E646877817D8D8B959D9EA715
:102F1800ABB0B1B1AB9D96918F8C817A766F625FC1
:102F28004A525E4B575C58585F606067696F7378A8
:102F380087888A989B9EA2AAA6B3BDBDC3BCB3A727
:102F48009D9890817874675A5C4D515A55595F5ACB
:102F5800565F57606465696F6E7A85818D92939A22
:102F68009D9DACB5B6BAB8AFAB9D94867C7C7773A3
:102F780065665A5660575B68686060646268707717
:102F88007677898B869396929EA9A6AEBCBABBBA71
:102F9800B5A99B90887E797F7567635B4F575A58B0
:102FA8006368615F615D5E616A6E6C76847A808A4F
:102FB80089939B9EA1ACA9ADAFA8A49C918D868155
:102FC8007B726A6766575F64626E746B696E636270
:102FD800686B7071788781818D8F909CA1A3B1B146
:102FE800ADAEAFAB9F928E8377726C6561645653BA
:102FF800615B5E6C676266646369676B6F7382822C
:103008007B8890929AA7A9AFB3ADAFABA79D928CDE
:10301800877E7A787068655957645C5E6A6B6972F6
:103028006D6972716F747C898A82919696A0AAA93B
:10303800B1B5B0B3ACA4948A878276706E665C5DD5
:10304800514E5F565866635E665E5D64676D747C5C
:10305800898A859597999EA9ACB2B6B2B5B3ACA149
:103068009A958B7E78736B6662545C6058626B636A
:10307800606860636768676E78827D809091949DD0
:10308800A4A6B1B1AEB1AFA499918E817A7A756ACE
:1030980062584F5C5959636661696460666667691E
:1030A800717D857E858D919DA6A5B0B4B1B3B5B06F
:1030B800A69F9B9387837F736E6355605D5A636693
:1030C8005F6A6C60646564686B74807D84888E96C2
:1030D8009E9EA3AFAAAAAAA8A19790898178716693
:1030E800676158605C5C66675E6A6E676A6D70717E
:1030F800747B838A9392939DA7A3A6AFB1B0ABA923
:10310800A19C93867E776D62635B5F5E52576058C1
:1031180055636064686E6E777A7E7E869895959C16
:10312800A6A5AFB2B1B3B2A79F9D8F807571666433
:10313800595C685A565F5C56625D59656F6F727B61
:10314800828789979BA2A7AAA8AFB6AFACADA7996B
:1031580095908A7E776A685D575B51535C554A59EA
:103168005A555A65686E767B80868F8E96A4ABA476
:10317800A9B3B3B0ADA5A19E958B8A857B6E626914
:10318800615863675E6363585C64626574797C83C5
:103198008C93979D9DA1AAAEA5A2A59F98948D8674
:1031A800827672696869585760534F5E5B5A6363E9
:1031B800616F73767B8890949CA3A8A7ADAAADB1E4
:1031C800A89D9C9890897F7E726D6D65686D5F5231
:1031D8005D56515C606875777C83888E919AA5AA44
:1031E800A7AFB1ABAAA49DA39B8A7F7A7462635CE4
:1031F800565B5D5055574E5155575D646A777D87CC
:1032080090979DA6A1A8B6B4B5B1ACACA69A908883
:103218008875706D6464655D5D63595A616368693A
:1032280067717079848A97A5A6A7ACA5A3A19D9C70
:103238009A938E86827370706764635A555A535294
:103248005A61686F727C7C8187868B979AA1A9A93D
:10325800ABACA8A49D94918B887A76736869685DF5
:103268005C5B595A5E63696F777E7F888E9299A1FD
:103278009FA3A4A2A4A6A29F9D9890847A6C6B6633
:103288005C5F5F5250505056595A5E666D71768138
:103298008B929AA4A9ACADABABAAA59E9A99918939
:1032A800827C7B746A69685D5B5E5A5A5E646A7484
:1032B80078787B82878E99A1A5A9ACACAEA79E9899
:1032C80090887F756F6969635E615F5A595A54586F
:1032D8005F646972777E878E92979C9DA0A4ABA845
:1032E800A8A6A49D978E8379706665625B6062620A
:1032F80061605C63686B6F7980868B939D9FA4A6E1
:10330800A9ACABA6A5A5A19A968E857B716A655EC8
:103318005556544E4B51535B6366676F7578818879
:103328008E939CA0A2A5A8A7A8A9A7A39E978C82C4
:10333800786F6A68606164615D5F605D606569712E
:103348007B7C81888E919AA3A6A8ABAAA9A6A09BEC
:1033580097928A837A7066645B585A5753555B58BC
:103368005C63696D74797E8992979DA4A7A8A8A9C2
:10337800A7A4A29F9A958B847D746A69675E5E5B39
:10338800545558585A616A717882868A919597A0DF
:10339800A8A9ADAFACAAA9A39D9A908780756961C9
:1033A800605B5357554E525553555D6268727B8129
:1033B8008893979AA2A5A3A8ABA9A9ABA49E9C930E
:1033C8008A817A6F696A64606560595E5F5D616869
:1033D800696F757C8288919598A0A6A4A7A8A5A1D5
:1033E800A39C969388807771645F635D585E5B5594
:1033F8005C5C595E66686E747C828992979CA3A710
:10340800A4AAAFACA8A9A098948C827A766B636AB8
:10341800635B6061565D615A626A6B737C80888900
:103428008F96999CA6A6A9B2AFADADA89E978F829C
:103438007870675A575A51525A534F5C5A576164B9
:103448006775787D84888F94969DA6A6AFB3AEAE37
:10345800AFA59E9B9087807872686A685C61675B9D
:103468005D65595968666975777C84888E94969EDF
:10347800A09DA7AAA3A6A49B9894898179746B6040
:103488006663585D63565A655A5C6A6768747778EC
:103498007F868D9599A2A6A6ABACA6AAA8A29F9C4A
:1034A800928C857B7668686C60616C625B645E5543
:1034B80062666466717C7D828690949FA7ABA9A79B
:1034C800ADA9B5AA9D8F8783766956524E616D6BFB
:1034D8007279675D6658474D575461737983909642
:1034E8009C9EA3A6A5AAB8B6B4B5ACA1A3A2999868
:1034F80097857B6D545E605654585B646D5F545974
:10350800595763575B7673AB838ED9C3BC97897859
:103518006B718682B3C39A8C9D7F556054676677BA
:103528008F9FA3825E59394161628A938B7B4F5C7E
:103538006B6E8D9FD4EBF6F1E1F4F1D4C6B87948FF
:103548005A472F290D090C1F0F0F141F5E84ADC396
:10355800D8E6CCA287726B7C79665E6A5269779CE2
:10356800CCC0D1936F8658689BB5CBCDC478656CB9
:10357800636A4D52646F5E442E3C43284C7A8683BE
:10358800AC94918F93B9C8E0C5AC83A0B4BEBBA777
:10359800A9A68F5F432D2C446A536AA28573767F50
:1035A800724634405C3F4C6B687B8596B2B7CDE47D
:1035B800ECD7C1BE9D7B65786567879B9B937A5CDA
:1035C800474F5A3B787B6180714E47584D4D758EF9
:1035D800A7B2ACA88FA4B6ABBAA9ABA9957A5F80FD
:1035E80078726C69624F5D5562676E787E9CA27CCA
:1035F8006C58504E5067688481847D8E8D817F7CA5
:10360800A79FAFC1CDC3BDA88C72596B797575875B
:10361800757258769B878D817C67553C3D3B30574A
:1036280060769199A4C3C2B9B8BCB6AAAC8C8076AE
:103638007D7A79757C7D6F64584845424E727289EF
:1036480084967A6764494E4261879EA6BFBDB2C61A
:10365800C8D3CFC7C0B49B85978C77777C6A515500
:10366800524F525E5C5B80ACAB8A846959543742D6
:103678004F6277737E7C90969DC2B2A3A0A3908B75
:1036880099A5998B898D908587747476878C8385A5
:103698009DA484655E573B2C244045456070849A00
:1036A800A7AAC2D1C3BCBCAB9D9E959796969F9D79
:1036B8009F836C5E526371706C7D7E6541383623E2
:1036C800294F5C5D6469797C97B7BEBFBEC1BDAB4D
:1036D8009385878282888A8373768384757E858EB4
:1036E8008E8277676753554E4F585B6870796B7059
:1036F8007385A0AEB9BBC8C1A086787263728E9E6E
:103708009E86786E6D5F5E6870737D6B5A696B62BA
:103718005B5E5E60463D596C687A95B3C1BEC8C5AC
:10372800B2898782858A8190979B8E735F5C556189
:103738005E6A757D77637A817E616271706869837C
:103748008D9D959DAEAAA1B0B4A3988783786C6827
:103758006E728289786B7476646785938A775972FA
:1037680080665464777167525C67727783A2AEB9DA
:10377800B3A5A3917C79747F918D8D9EA38F8E962E
:10378800907D798B888575697C836B4F4A4C4D4257
:1037980045576D77808A9AB1B3A7A5B8A791939D2D
:1037A800A5A1A4A1A3957974807B70687F8D7961A8
:1037B8004E5753534C546D71695052687272859DBF
:1037C800B1A79D9BA0A8928E979B8F8E898D898982
:1037D8009CA9AC9D918686796B687F847870665CBD
:1037E8004E3A273B5A5C5F82A6B4AD9E95988E7C74
:1037F8007F8E969CAABABDB2978F7F717D6F6D78C8
:103808007D605F725E4B4F56595C39384F75838DBA
:10381800B1C9D0B6AFA4A0989DA4A9B1A19089853B
:10382800777771716C6F73665D5448566B5F4F574D
:1038380068767C686B818A8999B5C7CFBBB6B9A809
:10384800896C6C6573756C787D8381715F63677350
:1038580071726565777C7E7C7E7D7C544B5F6C776E
:1038680091B8CDD4BC998D8E7F7F8491A1A4ABA44F
:1038780098807D736262606364766B617276615072
:103888004F4853473C547E91909DAFC0B8ABA0A120
:103898009A978E8A949495969A8A8781776D777D80
:1038A800706B68585C7A71636D798284625A667D40
:1038B800868A9FAEB8A19591806A66716E7E867E73
:1038C8007E828794978883838678786D718D989C9B
:1038D800887A686D5138455159637F8292958D8CED
:1038E800968D8185809096A5A8ADAAA8AB9A958457
:1038F800858686806A74796D6058555B5C42455B45
:10390800635E6A879AA09C97979391909197A09FDE
:10391800A09E91929087767B736356544C47727B36
:103928006E646B6C6D5A4D66799195A7B3BCB3AB59
:10393800AFA3988D8A7E858C878C8D908F8F867E9D
:103948007C79716E6B5A617E866B52515A57373A41
:10395800505B68768EA0ACA59B9F988F8C8D95AA9E
:10396800B9B1AB9E9A9185807D7A71736A5740523E
:10397800686A5B5153514A2D476A8495A7BCBEC4F7
:10398800AEA9ADB2B0A6A19EA6A9A7A4A09687731A
:10399800696455464D524A3D4D6B6A65626A68696D
:1039A80053506A7680869DABC1C0AEA79D90706269
:1039B8006A7E8B8992958C867F848E8E83827D6FBA
:1039C800636D909687847F756B523F52686F7481E0
:1039D80094AAAF9A959B99826C74868F90A0A7A0A1
:1039E80095847A777973717376716167736A5954BC
:1039F8005766694F4E687778859AB2C2B1A59F928B
:103A0800897C7C87989690938F8C7F767984887947
:103A18006E6D6D675A799E9A8374767B73575E795B
:103A28007E7D808CA1AFA3948F83725C556A81865A
:103A380095A8B4B08F7C7C84776B737E7C6C58645B
:103A480087846757575A4F2D2C4E6B7F8F9FBED256
:103A5800BCA3A9AEA598919BAAA69DA6B1AF9B832E
:103A68007B7E72665956595A47325C6F5F4C57676E
:103A78006D61424F68788197B3D4DBC8BBB4AA960E
:103A8800887C8E9A8F878D8E81705D657370645D7A
:103A9800606A6B6358718F816C61676F6B515E856B
:103AA8008E88838EA5BAB1ADAFAA967F7E83969B8A
:103AB800A0A29E9D937D6D79746564635D5F5A5B7A
:103AC8005468888477635A4D564B4A6C809091A607
:103AD800B1BDBCABA79E9177706F7C88919DA09E6D
:103AE80090856D6E797A777E877D7C6D6D6872942E
:103AF800958879766C664E3E5A686C74889AA6B139
:103B0800A5998D76645C61738B99A8B3BDB69D8CBD
:103B180083888179797E7C74736B6D5E6A7E735C51
:103B28004E49404A46536B77818D9AA6BCC7C1BBA4
:103B3800B8A78C79737C87898F9C9E91847E7472D8
:103B48006E6F706B6C6E73727F7981988D74615D26
:103B5800565B58536A7F85828B9CABAEA19C937D44
:103B68006A63666F82888F9A9A979393888A867B0E
:103B780079777C757C818B807898967D645B5555C8
:103B88005341546D7B899AACB7CABEA38E7C6C5DD9
:103B98006070858E8C908C81787778787B7B7E7945
:103BA8007578878A8B8D7F919A856C5E5C585B4AA5
:103BB80046606F7B8094A9B2AE948F877E767881B9
:103BC8008B9D9E9FA0A3A49E92807B78726E727735
:103BD8007B7F7E7F666889846B5D625B55463A535E
:103BE800677E8FA4BECED7B99F897A7264667087C4
:103BF800847E8787857F7666626665676F78879338
:103C08008B8E8689A5A390858270695E44576E7DE8
:103C18008C98A5AEBB9D8A8A8072676E707F858AF4
:103C28009AA0A6A29079716B63606169777C737CB6
:103C38006F6E8D907D6C6F66604B355166788BA288
:103C4800B5C0C9ADA09D928879726D797976829157
:103C5800A0988C7E7A7367676B71787F7D867D7E8E
:103C6800A1A78E797A6B5E5A445A6B79898FB4AC66
:103C7800B2A38F9B8B7960615E74929DB0B1A99E4F
:103C88008769676A5F4A4459727D7D7D767385834B
:103C98006E6763493F372D527EA9B2BCCAC9CFC4EB
:103CA800B5B4997C5D475162767A888682817C7149
:103CB8008A98847C7A777C888582758C9A948F8799
:103CC80094887D64577D7B8D898F97979F828A849E
:103CD800775E5C646F878593A5AAA38D847A776ED7
:103CE80061656F7C84827F836D8A9C8E847B72572A
:103CF8005139426A788B91A0B3CCCFBBB7AE916CE7
:103D0800615D6D74727A8C938B7E767979746A6B47
:103D18006B6C6D5656564C75867B675E5C504235AB
:103D28004965797B8098B0C0B3B0B6A691717078B8
:103D38008285828E9E92817E7689867169666765A4
:103D48005F58645F64888A78707266654F446672EB
:103D5800808AA0BED2D3C9CFC9BBAB94898C8A80D4
:103D68008695A2A1958E888E8E888D9084746B6CB2
:103D7800655B84A194857E766C624C5D707F7E7AEB
:103D88008A9CBCB9BDC1B8A88A84868E867A858A81
:103D9800847A77736D6B5B575C5D5F5F60605153CE
:103DA8007875696969615C5240565B64687C98AC57
:103DB800B6AEBFBEBAA3959390867989908E888453
:103DC8007A73797578817E736C605D5E536E7E7AE6
:103DD8006D69625F5C485B6C7270798A95A39B9F82
:103DE800A69E958C8A847E747479767472696367EA
:103DF8006A676B767169645E625A688B897C757BC9
:103E08007477615C757475778D949F9F9AA9AEA934
:103E18009D9B9996928E919A9E9C9D999E9F979F05
:103E2800A79E94948C877D718690817B84807A6E1E
:103E38005D707371747C83909D939DA3A29D9A97E6
:103E4800969384878C8F8B89888A8B83858A867FD3
:103E58007E766A6A606075756762615F645D555CED
:103E68006066696D778C94939E9C9A928A84838706
:103E78007E78736F71736E6C7073736F6F76767212
:103E8800767A7A7E7E7D82817D7C7A7B7B7774737D
:103E98006E726F7073787D7D8A8D8D88898B898A23
:103EA800898C8C878081827F7A7776716B6666676A
:103EB800686E6A69706D6B6B6F7073707173707117
:103EC8006A71747772757B74767C81808485889139
:103ED80097979B9FA1A3A2A09C9EA09D9B9D9E9906
:103EE8009296939495959792918D8E888988898ECC
:103EF8008580838D8B8D8E8E949593909393938DDF
:103F080089898A857C7A7C7A7372767D7F797677DF
:103F1800727170707170706E6F6F6E6E7477787D7D
:103F28007A77797A797D8183828184888681868A85
:103F380088857E7B787674777B7A777675707177EB
:103F480076767876787B7E7C7C7D7D766E6D6B72FE
:103F5800736C6C7477716F747D7E7F818384827ECD
:103F68007C8283828386878788817E7C7B787B813D
:103F7800827B7878756C6769697070706F716B6B2C
:103F880074716E6E7374777A7D7E82888C8F8C8D57
:103F980089888A8A8987878A8F908E9199968E9048
:103FA80095949190929A959494929695938E938DD8
:103FB8008F8D86888C938D9092948F8F9192959700
:103FC8009A999893928D8988898B88868384817F32
:103FD80085877E7A7A74736F6E6C6B68605D5755EF
:103FE800505658575D62686B7577797B81848588F0
:103FF8008A8A8D908F91928D8B908C8580857E7525
:104008006E78807E7A766C616870727C9574634491
:1040180039647D969C8E7268768E9A9EA48D676AA6
:1040280070707F9AA6936D628194988B6E606568B4
:10403800716E706E564D5359616B79848370637ECF
:1040480072697A7373627B948F8571606276889ADD
:10405800B6B2A195919FA7A8868C87877880A2A1E0
:10406800A6A091818893ABB6B79F909795968D71CE
:10407800615157556D847D89849091807688919897
:104088009399A1A3A8B4A2817F819DA8ACA194997A
:10409800939F9781785E5E5D6576858D8E86664F87
:1040A8004957656E67584C4B55616B6965656A6B16
:1040B8007A919FB9B2A2937F716C6C7272697378AE
:1040C8008386857E76716E6F726D79828C91766744
:1040D800625E5F6770788A978C7F7E8281807E833C
:1040E800807D7E879AAEB4A997838382898D8B86DB
:1040F800716B625A5E636F6D6561637580848873E6
:104108005F49443B435B656C6C6C67706A7580867D
:104118008A8B94969AA5ACA89D97989498A1A3B3D6
:10412800B9B7B9A090888683848083888B939C983C
:104138009295927E706E6D8386918A847B6D787D70
:104148008E9DA2A5A3A5AEA79F9E8E847570707143
:104158007C7A7E7C767173747F7D7C7D7778706DD8
:104168006F7173746B6E6A707377817E7B72696628
:1041780066666F818D959393928C868186817E7712
:10418800757A808079736E6564686A7688908C8C9D
:10419800766A63655E5E5C545E5E6262747E868487
:1041A800878E8E9C949AA2A29E9490888D8F8F8CD5
:1041B800898884817F827C7067615C5C616E7A84A7
:1041C8007D726B625C575B58626C6863606B71767A
:1041D800798080838A8EA1ABB0AEA69A918D8D8CA2
:1041E8008C8E8C8A868184858A94988C838E929A08
:1041F800979596938B7E7F839296999591928882D4
:10420800808E959D9E9DA2A2A6A8A8A0998E857C29
:1042180076777B7E7C7979726A6E7470757D757C31
:104228007E7A75726A56504140464E585B686D708A
:10423800707C838C94949A96979A9A94948D847CA3
:10424800726F717C84807E75706F74706E858385E3
:104258007D7674726F6971696B67646B7483888D1E
:10426800888988898D949F9F9D9C9A8F867F7A7470
:104278006A67655F5F686D6F6B676A6B6972737C8D
:104288007D757067656165616A6C686F6F78808736
:10429800868D8E8D91909CA2A4A6A8A0968E888CBF
:1042A8008A857E83888A8E8E94979895888D8C8E41
:1042B800908D928E8679787377777378787C7C8402
:1042C8008994999EA7A3A8AAAAA8ABA79F998E8507
:1042D8007F84828486848482827C7B79787A7373F3
:1042E8006D6B6D6C6B6A6E66655D585D626C6D7545
:1042F8007A8483888E8E948F88828684827C6F6984
:1043080064625E5E666D726E6A6665686F78767FF7
:104318007E797C7B7D7E827673716C6F6E7A838EFC
:10432800939899969D999EA1A09A97968F8B86822D
:104338007B786D6465666A6D7073706A69716D7497
:10434800767374706A626763696761666773767E9D
:1043580088969A9196969CA3ABAEA9A49F9F9A9192
:104368008B8F8E8381818082878A8885848B8184E4
:1043780089888B86878381787776767A70767B8151
:104388008B979F9BA19C9BA19F9E97938C867D7BDF
:104398007C777469636264625D60686D717A767750
:1043A8007E7A7B7B837C7B7273767787747679776A
:1043B8007C859387859292A5AA9BA29C919FA19D9B
:1043C8009E7A5A4F424E55647E777067727B798821
:1043D8008D9AB4A0847C6A635F5A5F5E564F3C3105
:1043E80035414B545D768380808688959FA6CCC2E4
:1043F800C4BDB8A7A1CA9E8096A5AAB9B6B2B2A2F2
:104408009A8F8E87847E716F7474685E61606C7A2F
:104418008993949B94AAA09A9EA39F857B635951E4
:104428004836383A3337312C31333139414B4D4ED8
:1044380056595B5B5E6A6E7A828F9096A8B8C2BD49
:10444800C1C6CAC5BDC2CBCFD7DCE3DAD0C5B5A2D9
:104458008C8675736454514541433B373537504119
:10446800383B3C4547514D4D5051544D5454515F84
:104478005E666A7378849592A0A6A2A5A5A6AEB733
:10448800BABABEB7B9B0B8B7ACB8ADAEA9ABABB2F3
:10449800B7B5B7B2AFA6ACA2A0A69E98918C8B87F1
:1044A80089898E908B89898C807E76787B756D64FE
:1044B8005E5A574A41403D32322B2F30272723235B
:1044C800262F332D2E3A404B504F5357635C5E6C6A
:1044D800757A828B929BA4B6B6C5DBD7DFEBECEE80
:1044E800F2F1F1F4F5ECEBF0ECE8E7E3DCD9D4BB5E
:1044F800C4D9BB9BADBC998585787169595B6D68DA
:104508005360776C5D65685D59514A47362B303684
:10451800271F261D14141C1E1E23232B2C26262081
:10452800314533283B3A1C202E2A2E384B5D6C79B6
:104538009ABEC0C4DDEBE8E9F2F1EFE3D6D7CEC30B
:10454800B8B9AE9FA3A6A4A9AFB3B6B3AF9CA4C095
:10455800A794A99F7A707772777A8192999BAEC84F
:10456800C4C4CFD2CDC8C7C2B7A49A9887746C699F
:104578005A4F585C595A5C5D595650415A67403CED
:104588004D381913100708080F1A202D495C576475
:1045980073706B6B6E685F53534F464144443D469E
:1045A80058636A7C8D9399A69CA0C8BDA4B7BC9F8C
:1045B8009199908C8A8D999EA3B5D0CFD0DFE3DFF7
:1045C800DCE1E1D6C9C3C0B4A8A6A3958D9194989F
:1045D800A1AAB0ACADA29DBCB094A1A381686C6542
:1045E8005855586262687B93989BB0B9B6AEAFA92C
:1045F8009786766856433E3B312D3439383F4548D7
:10460800484B4249695C4B5B59392D332B2523288C
:1046180035373D546F767B909A9C9FA6A89E9790BD
:104628008B8076736C605E6260636D777A7F797475
:1046380094A18992A8917377756661606D75788980
:10464800A3B6B7C5D2CCC6C5C5BFB4ACA59C8F8828
:10465800837B7B828386909D9FAAA9A1C1D1B7B98C
:10466800CFBD9E9D9E9290919A9F9BA3B2BEBEC8BD
:10467800D4CFC9C6C4BBAEA4988A7A71685C5855B1
:10468800504D4E4F4E524445655C45565E41313A59
:1046980033282B364245495970787F95A09B9EA5B3
:1046A8009F938A82736153483E39383534393C4187
:1046B800473A4D674C425C5434373D2E282E3B44D4
:1046C80046536F858B9BB2B0AFB8BAB3ABA99E8E79
:1046D8008075716B6463696863726E6C939680937E
:1046E800A79086978F868B919DA2AABFD7DFE4F209
:1046F800F4EFEEF0ECE4E1DBCDB9A59F95847E8381
:104708007F767C727C988986A0A0858A937F7C843A
:104718008B8F9097A6B3B4BECFCCCACFCDC3B9B355
:10472800A6937E7673665E646158544A5F6E5858E5
:104738007060424D4F39363F4442424C5C676C8151
:10474800928C8C9391837D7B6E5A4E4D45343436D2
:10475800312F2337503F3A5756343541322A303DAE
:104768004344506571707F94918B969C958D8F8989
:10477800796F6C655D60656B615D7F846C7D95802C
:104788006E7D7D6E6B77868A8A9AAFB1B4CAD5D0B2
:10479800D9E1DFD2D0CBBFB5B0A8A4A09A9A8891AE
:1047A800A593859B9D8182887A6F717980828A9D85
:1047B800A7A7B5C9C9C9D4D7CECBC8BDB5AEA39F25
:1047C800968D81778C8B777E907A666E6957545D6B
:1047D80066696F818F929AADB3ABB0B3ACA2998F73
:1047E800877B6E6961563F3C50412A3A482F2834EE
:1047F8002B1A1F292B2C34444B4C566C7170808A11
:104808008987868785797170725E546E6B505D7486
:104818005D5062604D515E61676C7B898A8C9EA891
:10482800A1A8B4AFA39E9D96877F7F7C61618171AB
:104838005468785A51615A4C535B616768778A8A21
:104848008EA8B2ACB7C9C4BCC3CAC1B7B6B9AA9618
:10485800ADB4958FA7967982877A7680868E8F9465
:10486800A8AFABB9CCC4C1D2CEBCB9BBAA97908E05
:1048780076677C7A62647461525A584F5158606501
:10488800646F7D7C7B8E979099A49D959E9A8C8968
:104898008A776879745C5F6C594C54524D4D5863F3
:1048A8006B6D7F8E8D93A6ABA6B0B6A9A1A3968893
:1048B80081795D5A644C3C4A472F333A3530374149
:1048C8004B4C52666D7283949398A4A0969C9A92CE
:1048D8008C8B787182725F6A70565157524A4F5961
:1048E80063696E8490929FB0AFAEBAB7B1B6B4AFF9
:1048F800ABA68D8B98806C7B795B5A5E5249515779
:104908005C5F687C848797A9A6A9B7B3AEB3B2A841
:10491800A4A0888D947A6F7F735A626255525A5D4B
:1049280064687383898EA2B2AFB8C6C2C0C5C0B46A
:10493800B5A395A59B818892736A73685A5F676966
:104948007177848E8E91A1A39DA7A8A1A2A2979406
:10495800917A7E876D5B6C63484E52423B48494D65
:10496800545D6B747785989699A6A7A3A5A3999883
:10497800897C897F64666F4F434D45343E4C4A536A
:104988005E6C777F8698A19DA7ACA6A1A1978E861D
:10499800707378615463563C44483A38494A4E58D3
:1049A800616C767D889592959F9C979A9A9391834E
:1049B800808C7F6D77785C5C675D556771737E89E5
:1049C800949EA3ABBDC2C3CED3CDCDCDC2BBAB9B52
:1049D800A1987E7C84675A635D4C55626068717CDF
:1049E800868F95A4ABA8ADAFACA9A9A39C948288E7
:1049F8008872697667556062545668696E78848FE4
:104A0800989EADBAB9BAC1BDB4B3ADA09A8D80892C
:104A18007D676970534850483A434D4C565E6971FA
:104A280075768587858D938A8B8D847C7B6A626F8A
:104A3800604E54593D383F372C353C404D576471D2
:104A48007B8395999BA3ABA4A7A9A3A0A0938696C3
:104A58008D7879836C646E6A606571747D818D97D9
:104A68009A99A5A8A3A6ACA5A0A49E98908B7677A2
:104A78007F71656D6B585858544E585E666F7786CF
:104A88008E9399A8AAB0B9BEBBBCBDB4AEA8A28D7E
:104A98008D9586777F7D686769625B646A707680CA
:104AA8008D9498A1AEADAFB4B4AAA5A495919388FE
:104AB800746B7466545961453948484C54524F5385
:104AC80060646561697E8E99A8B1A89E9895827682
:104AD800726C626C786663716655595B4D495C61AE
:104AE8006A6F7B87919AADBBC1C6C8C4B0A9A9A794
:104AF8009E998C847985836B5E6759404738443D1D
:104B08005B4954A8AE96715B5450557F95C9D5B68C
:104B1800A4B8A07783757E7DA7A696B5965A594303
:104B280042676587937D75595A64769DABD9F1F4D0
:104B3800EFE1F2F0CABEB4834246523B2711160594
:104B4800140F0E0D1F5D7BA7CBE9F6E5C7C19F8C3F
:104B5800988F725B5C485C5C6582857C3B435B2E0E
:104B6800527B7F85ACAC5C5F5C617A5F566B818AF7
:104B78008889A3BEBCC0DCCFB8D39D7B77849B99C2
:104B8800B796764A64797E857E775E6144453F4173
:104B980055756871AF958DA0BEBFB09FA9C0968DA1
:104BA800827F78687B7E787E8A8C6D6A6F58443CF9
:104BB80049323D6B8FACB9BAAB8D989F85939C9C5D
:104BC800A391807C777A767374898A6E66675A4077
:104BD80042523B425A514851788289959BACB3B5B1
:104BE800B8B6B6A2969AA1927B82757A6C6A8272DE
:104BF800665D503F464B4A484D6C7283A9C2C1BDA1
:104C0800B4A89D97AEBDB0C8C9A18368696769712A
:104C180063525D62565E6D60666575806B71827EFB
:104C28007B868D9291A8B2AA97ABA7959C989483FE
:104C380080745D5F6D716576977C7C7E6D5962715D
:104C48005D647B8C96A3A396A0A0A7B1ABA7999A05
:104C58008C958B7D827A7B6D69634934494C405DC4
:104C68007B776A796E6763576E7179868B8F97AF9A
:104C7800BCBFCBC1B1AA9E85818C8B7C7D8D867C87
:104C88008290744F57695C55696F5C5B59656973AD
:104C98008290AEA4AFBCAFAAB6A896959488848932
:104CA8007C7773624A5063655C736E544E525C62E3
:104CB800788188746C6F6D727BA0C2C0BBC1B2A7CB
:104CC800979A9A968D828D92856A7273595D7878D3
:104CD800696E69615E5B5E627C88929C8A9395943A
:104CE8008D929B8B848B7D6A787172798387859787
:104CF80094706A6751445A7368746E5D4C53636864
:104D0800758698A3A29FA6A59BA1B1ADAA958C87ED
:104D18007F74646D6F666D85826F606758515A5BEA
:104D28006772838C857C7E899C9AA0A3978A8883E6
:104D38007A858485888C7C7D8D7A757D725B474FFA
:104D48004D4850535A5A697484909DB0BDB2A5A974
:104D58009D9597A4A7A2948A8C8A6D617471646CDE
:104D6800786A67737B6F71717A7A6E7876786F7C00
:104D7800949A9EA39F958F9285787E8185867F7170
:104D88007E846F6E807B5F69746A68666D656B7719
:104D9800879799A9BDBEADABA4988D8D857D7A7690
:104DA8007B7E7C717B8A7D737F725D596C6D646ECE
:104DB8007F83757381817683979E949E9C95919449
:104DC800968E83828176715D697E767A89836C6737
:104DD800746C63677574707F847F7D8A98A8A1A5B9
:104DE800AFADA99D967F797B8084847C85928077FE
:104DF8008170574E5359524F5E6B646F878C8B9CF2
:104E0800ADB5ADA199928C8B8F8785807B7D7867B6
:104E18006B887D71827960535E6364646D767273AA
:104E28007B7E768A99A4B2B1B5BCBFB5ABA08F7DA5
:104E3800797C7A6C768878646D6B575459615E56C4
:104E480057646D717C847D84909FA29B9F9A9A8BF6
:104E58008C8E87797C82847A789A9481807D574772
:104E68004F575B646F7C82808486807D8D8D8E90A9
:104E78009997A3A89A958E8B8387888676858D7C4B
:104E88007E8179756F666E665F5C61676971758131
:104E9800868B94979C9D9A998D7F70696C737A7EA6
:104EA80082838F928B827D7C8588797A7C71676B0F
:104EB80062606062737D8D92978F859298959695C2
:104EC8009B9E9E9C96968E948C7B746A5F5F645BB7
:104ED8005B5D616362666B727378888E949A9DA13C
:104EE8009E96908C88939C9D9290887E7D6C6E6C2B
:104EF8006769696160635A5C635D5C686F76869A0E
:104F0800A4ADADAFB0A69F9897938F9393918E85DC
:104F1800846F5B5B565461717379756D6C6E6967EC
:104F28006D7077868D8E94999E9994959493979B9E
:104F380099908D786E706670726D686A685F646744
:104F48006F70675C59616C7B8A9DACAFB1AFABA2E7
:104F58009F9C949798979595908A7C6B68615C65FF
:104F68006F60595D5554575A5D6B7B808990929557
:104F7800929298A2A7A7ACA9A39F9C96877C7976C2
:104F88006B696860625F55515757504D4850607162
:104F98007C90A2A5A9ACACAAABABA6A3A5A4A096ED
:104FA8009089807F7B7671676A6F655F5F5E575611
:104FB800595C65747B80888D969A95959B9798A186
:104FC800A6A19F9D8D847A7E7E727A756C6E6E60C6
:104FD80054575552555B626F7E858D908E8D8F919B
:104FE8009AA9B2B3ABA59992918F887E847F727586
:104FF800726D7374665B5C585453555A6370798349
:105008008A919A9899999DA9AFB2B0AEA7978C7FCB
:10501800797C7B77756E67685C4E454241464E5C8D
:105028006D7D8D9494909199AAB6B9BCBAADA49EA1
:10503800948F8D887C746E69676A6765655C585162
:105048004E545B666D71828F96989592949B9DA144
:10505800A3A6AAADA38F82797166697272706B6517
:1050680060625F534E555A60717D879DA9A29EA2CA
:10507800ABB4B1ADA79A9898938A8A897A6C656916
:105088006B686969676B64584F515B68706D788AA3
:1050980092949A98989FA3A8A8A5A19A93857B779C
:1050A80077756F7C867A706B5F5D5E504543494AC1
:1050B800586A75899DA9B0B1AEB1B6B2B0A7988D3E
:1050C8008D92908E877B737D8684847F6E67614A1C
:1050D8003A36353B5367717D888D98A5AAAEAEAE3A
:1050E800B3B2A7988F89857E79787476828B807120
:1050F8005C5150494A494848536A7B8C999EA8AFED
:10510800B5B8B8B1ABA89E938C8C8583837B6F7040
:10511800777F828479685A4843404144546A7A8A3E
:10512800949493979CA1A9ADACA397908E8A8684FA
:105138007D7A74757B84878177635A54504B4648CF
:105148004C586C859FAAACABA3A1A8B0ADABA296F6
:105158008E8C8B8786837971717984888471635486
:1051680049454C565B6169707B8A949A989BA1A7C4
:10517800A9A69C928A8581848682776A686C7981DF
:10518800898071635349464C515967768AA2B2BBEC
:10519800B2ABA9AFADB1B7AA978A817779807F748E
:1051A8006D69696F74726C67584849565B647074AE
:1051B80077828E9BA9B3B3AFA89E97908A8D8D8B6B
:1051C8008C867D6D6662677071766F6652443E4369
:1051D8004C56677885919FA9B0B0B0B2B6B2B2AF5D
:1051E800A2938A817C7F817C75756E6D7177736DF2
:1051F800675A4D4E555A636A6F76818995A1ADB04D
:10520800ADA69F9C959395928F8981766B696975F8
:105218007C807C736554474149505D69757E868FF3
:105228009AA5ABACB2B3ACACA69B95968F87888792
:10523800776E6B686C7177736E6051464646526044
:105248006A6E78858B969FA9A9B0B2B2AAAEAA94C5
:105258008D928C877E726566727B7F6C624F462961
:105268002B3B596D8C916B7A95B4C2C5B5ACA6A091
:105278009B97969794B0847584676D74876F707ADE
:10528800756C503325394B58747D80949A8F94A24D
:10529800A7ACB0B09EA3AD988A8377696F78727215
:1052A800757A7D77635B61574F514F5B5C6F829076
:1052B800A4ACAFAEB6B3B9A6A3ACA4927F7E726B12
:1052C800756A5F646E8091928F7A5A563B38454D65
:1052D8006382837C8B979AACB8A9A79EA39C929E65
:1052E8009F938E846D655E5F7A757581685B5145A5
:1052F80043465469575B6E6AA4B9B2BBABACA0898C
:1053080093A7BEB5A5A09BA49A866564645F58540C
:1053180071715B443A415C7086787C858584707EC7
:105328007998A8A6BBC0CBC8B0A4899084747769C3
:105338006B5B5D4D505B67614B505A625F6D808A55
:105348009293969C989D9D9DA4ACB5BBB2ACA58E3E
:105358007C736E6B6B6969636661534C4B505A681A
:1053680074837B78716D7A7F9398A5AFA6ACB2B43D
:10537800ADA3958B878492806D5D535F5E6D6B5F87
:10538800524A4D57676B79777E85819394959CA394
:10539800B1B8C3CFC6AC9785817E83907C635B5DD3
:1053A8005F67655E595257606C666263646B7B8C9D
:1053B8008F9791959DABBFBFB19B8B848F92928B3A
:1053C80070605964777E755B514C4F5962666164B1
:1053D80079939092949299A7C1CFC4BAA9948880DE
:1053E80082827F7A7C6B686E6C6967635F64666BC8
:1053F800666057606A7783858A959EA4A5A0AAA946
:10540800ACAAA38977726D7175746A6C74787266C8
:105418005455555A5D5E5F5F72828F8D8D8F9DAB3F
:10542800C0C2BDBAB1A3978A7A7A7E8E8B85645939
:10543800616D7771695E676664524D4B61778582ED
:105448007B7F8C99A2A8A9B5B5B7AA997E7E8186DB
:10545800817C7466777A7A6C64595A5D5B4E4F58D2
:1054680069787878778899AFB7BBB5BEBBB2A29593
:105478008981817B7C73766970727C746F665B5DF1
:105488005452484C546876847E87909BA4ACADB245
:10549800BAB3AD9C92868A888C83806C656968678C
:1054A8005E5E515353524851596D7883878EA2AB33
:1054B800B4B7BBBBC3B8B4A3958079787775736C60
:1054C800606E7379706A5D62615C4F4D56626F728F
:1054D80076778E95A4AAB1B2B6ADA29C91847D8050
:1054E8008287867F686F777D6F696063685E4F4FDC
:1054F8005B61747887879BA2A4A5ABAFB1ACA09F72
:10550800978F7F7B78797473636D7A8178716B6B11
:1055180070665A5463646F686F717E86909EACB3F0
:10552800B5B6A8A69B8E8283888B817F6B6A7376BB
:105538006A615F5A5C544E485858646E838B919ADE
:10554800A5B1B6B6B1B2AEAC9F998A857E7F79799E
:105558006F6D77776C64675F5F55524D5A565D641F
:10556800747C7E8893A6B2BCBCC1B9B4A5998C865C
:1055780082847B796C6571716961645B5E57575190
:105588005D5F626A7A8A90959CB0B9BDB6B7AFAADA
:105598009C90827C737175786E6A77796D67655AAD
:1055A8005E5856526260606875868A9198A6AEAF5A
:1055B800ADB3B3AB9C99948C81827C7B6C626E7327
:1055C8006A66695B5B5150515C62676E7A84828659
:1055D80094A5B2B8BBC0BDB6A59E968B7C79747BEA
:1055E800706A74766C65665B5E56575A605A575D8A
:1055F8006B7A828592A0A7B1B3B4B4AF9D99989104
:10560800817F7C7C6E6C7A7C7070705C574C464FE6
:105618005F616A707B878E8A93A1A9AFB6BFBEB857
:10562800A79F998A79777072625F6D7166696B60FE
:10563800625E5B5D6864686A747B898B94A0A5AEC2
:10564800B2B4B5B1A19E9C8D7776717366666F6DA5
:10565800646C6A5A564E48485A606E757D848F92BB
:105668009AA3ABB4B7BAB6B1A29E9D978680726F63
:10567800625E6C6F6C737360615E5956615F676CD4
:1056880072787F828791929DA8B2B5BCB0A9A79E77
:105698008D8580796F6975736972725B5A564A474E
:1056A80056595C6670757F8C96A1A4B2B9B8B8B724
:1056B800AAA1A19E908D83756D5F6A6D676C735FFB
:1056C80059574B45545A5C6B6F737A878D959AA5D9
:1056D800AEB3B5BFBCB4B3AA978983757163656A65
:1056E800645B6660505957494A5D59626F747580AA
:1056F8008B949DA9BBC0BDBEBDAFADADA3908A7C48
:105708006E665A636C666871605B6158525F645E6E
:10571800696E6E7482898F9499A1A3A7AEAFA7A86A
:10572800A6998D8C8179746D7273676A715C596200
:105738005653646365707574768286919AA8ABAA8D
:10574800ADB1A8A0A79D928D8879736F6B767A7397
:105758007A765B6162565A635D5A64676B79838CAB
:1057680095979EA0A5AEB6ACAAAC9F958E897B797D
:10577800726D756B616A645058544A4D5A5B5F6D1F
:105788006E727C85909DA4AEB2B2B9B7B5B3ACA326
:10579800988D7F71736C68716D5F6565565E635A2D
:1057A8005A645A5A5F666F7A89939A9DA6AAAEB6CA
:1057B800B6B2ADA99C9590857C7977696B6D60616F
:1057C8006859565E55566266686E7679818C9295F0
:1057D8009AA0A2A4ABB0ABACAC9D92887F7C7B7F37
:1057E80072696C605765635C67695C595C545D6895
:1057F800757D868D90929CA9A9ADB5B1ABA8A496EC
:10580800918E85847E7B6C6B70625964544C5D58B4
:105818005057605E67757E818C97989AA6A8A5AD4B
:10582800B6ADACA89C94989B9691867B635E6259B2
:1058380058675E4F584E434F5B5C677173737C8A41
:10584800959BA8ADACB0B5ADA8ADA7A1A19B8E891D
:10585800807A6C63665B546260505C61555B6A6910
:105868006E767C7C7F848B8D95A3A09EA4A6A3AE28
:10587800B2ADA8A2918580747369676C5F525D5B55
:1058880052656B5C5E655C626E757B85898D8F90F9
:10589800989DA2ADB3ACADAD9F97948A7F7E76728A
:1058A800736463665E617166606E685D666B60678F
:1058B8007074787E7C8287919FA9B1BBBDB5B3B166
:1058C800A498978D7F766D63686365716B61656079
:1058D8005362685F636D625C636971818E939B9BA1
:1058E800A1A9ABA9AFAEACAEACA1999487807F78E3
:1058F800737669656B5E56636157656755555C5687
:105908005D6A6F79868C91989AA2AAACAFB4A9A166
:10591800A6A49D99978D837A756D746D6770675885
:10592800585B5059665F5C6966626C7073788087F3
:1059380092979BA6ACADB8BFBBBEBDB1A29683760D
:105948007575716E6654575C55596966626E6C5C04
:105958005C64636B757A7A7B7C85929AA3ABADAEF7
:10596800B4B1AEB1AC9F948E7B6F6C6B65685F58B9
:1059780065645C646E61646C625C646569767A8493
:10598800868C97A4A9AAB1AFACAAAFACA8A69D8DE6
:1059980081797372767569675B5A5E5C606D6C635A
:1059A8006E6F5D6274737984908889847D8F99A104
:1059B800ACBAABBAB5A2A1A3947B7A636165675C04
:1059C80061615F6B646567727D838B83685F626307
:1059D800737B71888E9394838B838C97A2A1A2A3E7
:1059E800917A665F6569626A657463636671B9AD69
:1059F800A1A09CAEB6A498978B90979F989DA29BC8
:105A0800B2BCBAC6BAB6A79F9F8B8B737C826D61F6
:105A18006763463E312C26181E33312C2E22171A66
:105A28001D19203045687D656F89B0C5BCC8E1E2A5
:105A3800B8C0CED3C8BDB8A6B6B6AEB5A5959B9925
:105A48008D878D827A8686706E7A77788188877559
:105A5800615A6568646D7B826E594749452C3135BA
:105A68003841473B3423132329365173736B7159DB
:105A78004F64798293A6B4C4C7D1DFDEDBDFE3D6F7
:105A8800D5DBDFE3E6E0D6D8D5CFC4B7ADA2938E99
:105A98009397989A9D9383766B5D6169686C727928
:105AA80075706F7073798D928C8D8E846C594236B7
:105AB800322E29262A241F190C131C1F3032323B80
:105AC8004345516570777A7E7F868A95A2ABC0D6AA
